:100000000C9434000C9446000C9446000C9446006A
:100010000C9446000C9446000C9446000C94460048
:100020000C9446000C9446000C9446000C94480036
:100030000C9446000C9446000C9446000C94460028
:100040000C9446000C9446000C9446000C94460018
:100050000C9446000C9446000C9446000C94460008
:100060000C9446000C94460011241FBECFEFD8E03C
:10007000DEBFCDBF21E0A0E0B1E001C01D92A43001
:10008000B207E1F70E947D000C94AA000C940000D6
:100090001F920F920FB60F9211248F939F93AF93DD
:1000A000BF938091000190910101A0910201B09154
:1000B00003010196A11DB11D8093000190930101E0
:1000C000A0930201B0930301BF91AF919F918F91D3
:1000D0000F900FBE0F901F901895AB01BC0180913F
:1000E000000190910101A0910201B09103018417D8
:1000F0009507A607B70798F308958FEF8AB91BB83D
:100100008BE08093810082E080936F0089EF90E024
:10011000909389008093880078948BB1C1E08C27FC
:100120008BB968EE73E080E090E00E946D008BB1C7
:100130008C278BB960ED77E080E090E00E946D0045
:100140008BB1C827CBB968EB7BE080E090E00E94E0
:080150006D00E3CFF894FFCF2E
:00000001FF
