S0240000546F6C67615F53616E6C695F333233363131315F4152424B56535F322E737265633A
S11300000C9434000C943E000C943E000C943E007E
S11300100C943E000C943E000C943E000C943E0064
S11300200C943E000C943E000C943E000C943E0054
S11300300C943E000C943E000C943E000C943E0044
S11300400C943E000C943E000C943E000C943E0034
S11300500C943E000C943E000C943E000C943E0024
S11300600C943E000C943E0011241FBECFEFD8E048
S1130070DEBFCDBF0E9440000C945C000C940000D5
S113008083E08AB91BB88BB181608BB92FEF83ED04
S113009090E3215080409040E1F700C000008BB114
S11300A082708BB92FEF83ED90E321508040904014
S10F00B0E1F700C00000E7CFF894FFCF98
S9030000FC
