S0240000546F6C67615F53616E6C695F333233363131315F4152424B56535F342E7372656338
S11300000C9434000C9451000C9451000C94710025
S11300100C94B0000C9451000C9451000C945100B9
S11300200C9451000C9451000C9451000C943C011C
S11300300C9451000C9451000C9451000C945100F8
S11300400C9451000C9451000C9451000C945100E8
S11300500C9451000C9451000C9451000C945100D8
S11300600C9451000C94510011241FBECFEFD8E022
S1130070DEBFCDBF11E0A0E0B1E0E2E6F3E002C0F4
S113008005900D92A431B107D9F721E0A4E1B1E0C4
S113009001C01D92AC31B207E1F70E94EF000C944D
S11300A0AF010C9400008FEF8AB91BB881E084B9CA
S11300B082E085B917B888B9F89493E09093680002
S11300C080936B0080936C009BE0909381008093FD
S11300D06F0089EF90E09093890080938800789472
S11300E008951F920F920FB60F9211248F939F932E
S11300F0AF93BF9319992BC080911401909115016E
S1130100A0911601B0911701892B8A2B8B2B61F4D6
S113011084E690E0A0E0B0E0809314019093150190
S1130120A0931601B09317018091140190911501C9
S1130130A0911601B09117010197A109B10980930B
S1130140140190931501A0931601B0931701BF9168
S1130150AF919F918F910F900FBE0F901F901895A4
S11301601F920F920FB60F9211248F939F93AF9308
S1130170BF9331992BC08091140190911501A091E6
S11301801601B091170183369105A105B10559F403
S11301908FEF9FEFDC018093140190931501A093DE
S11301A01601B09317018091140190911501A0914B
S11301B01601B09117010196A11DB11D8093140180
S11301C090931501A0931601B0931701BF91AF91BD
S11301D09F918F910F900FBE0F901F901895CF9302
S11301E0DF93CDB7DEB764970FB6F894DEBF0FBECA
S11301F0CDBF0E94530084E1E0E0F1E0DE011196FE
S113020001900D928A95E1F76091140170911501A6
S113021080911601909117010F2EFAE0CF2ED12C68
S1130220E12CF12CF02DA70196010E948D01660F9F
S1130230771FE1E0F0E0EC0FFD1FE60FF71F808170
S113024091810E9481016091140170911501809146
S1130250160190911701A70196010E948D01220FAA
S1130260331FE1E0F0E0EC0FFD1FE20FF31F80818C
S113027091810E948101C8CF1F920F920FB60F92F5
S113028011248F939F93AF93BF9380911801909102
S11302901901A0911A01B0911B010196A11DB11D74
S11302A08093180190931901A0931A01B0931B0134
S11302B0BF91AF919F918F910F900FBE0F901F90A0
S11302C018950F931F930091180110911901209113
S11302D01A0130911B01AB01BC01400F511F621F79
S11302E0731F8091180190911901A0911A01B09186
S11302F01B0184179507A607B70798F31F910F9161
S113030008958BB96AE070E080E090E00E9461019A
S113031095B181E0892785B90895A1E21A2EAA1B17
S1130320BB1BFD010DC0AA1FBB1FEE1FFF1FA217A1
S1130330B307E407F50720F0A21BB30BE40BF50B9E
S1130340661F771F881F991F1A9469F76095709527
S1130350809590959B01AC01BD01CF010895F8945F
S1050360FFCFC9
S113036240007900240030001900120002007800D5
S10703720000100073
S9030000FC
