S02B0000546F6C67615F53616E6C695F333233363131315F4152424B56535F325F696E746572727570742E7321
S11300000C9434000C9453000C947D000C94510017
S11300100C9451000C9451000C9451000C94510018
S11300200C9451000C9451000C9451000C94510008
S11300300C9451000C9451000C9451000C945100F8
S11300400C9451000C9451000C9451000C945100E8
S11300500C9451000C9451000C9451000C945100D8
S11300600C9451000C94510011241FBECFEFD8E022
S1130070DEBFCDBF11E0A0E0B1E0EAEFF1E002C0E5
S113008005900D92A230B107D9F721E0A2E0B1E0CA
S113009001C01D92A430B207E1F70E94A9000C949C
S11300A0FB000C9400001F920F920FB60F921124C4
S11300B08F939F938091020190910301892B91F476
S11300C08091000190910101019729F4109201019E
S11300D0109200010BC081E090E0909301018093A5
S11300E0000104C010920301109202019F918F91AC
S11300F00F900FBE0F901F9018951F920F920FB67E
S11301000F9211248F939F93809102019091030188
S1130110019791F48091000190910101019729F4D4
S113012010920101109200010DC081E090E09093C3
S113013001018093000106C081E090E090930301E7
S1130140809302019F918F910F900FBE0F901F908B
S113015018958FEF84B915B81AB88BB9E9E6F0E0B1
S113016080818A6080838DB381608DBB8DB3826012
S11301708DBB789480910001909101010197C9F49D
S113018085B12091020130910301232B11F49DEFDD
S113019001C09EEF892385B925B181E090E00090EC
S11301A0020102C0880F991F0A94E2F7822785B9D9
S11301B018C085B12091020130910301232B11F461
S11301C09DEF01C09EEF892385B925B181E090E0C0
S11301D00090020102C0880F991F0A94E2F7822B53
S11301E085B92FEF84E39CE0215080409040E1F7F3
S10D01F000C00000BFCFF894FFCF59
S10501FA0100FE
S9030000FC
